{
  "contractName": "SupplyChain",
  "abi": [
    {
      "inputs": [],
      "stateMutability": "nonpayable",
      "type": "constructor"
    },
    {
      "anonymous": false,
      "inputs": [
        {
          "indexed": false,
          "internalType": "uint256",
          "name": "productID",
          "type": "uint256"
        },
        {
          "indexed": false,
          "internalType": "uint256",
          "name": "price",
          "type": "uint256"
        }
      ],
      "name": "ForSale",
      "type": "event"
    },
    {
      "anonymous": false,
      "inputs": [
        {
          "indexed": false,
          "internalType": "uint256",
          "name": "productID",
          "type": "uint256"
        }
      ],
      "name": "Harvested",
      "type": "event"
    },
    {
      "anonymous": false,
      "inputs": [
        {
          "indexed": false,
          "internalType": "uint256",
          "name": "productID",
          "type": "uint256"
        }
      ],
      "name": "Packed",
      "type": "event"
    },
    {
      "anonymous": false,
      "inputs": [
        {
          "indexed": false,
          "internalType": "uint256",
          "name": "productID",
          "type": "uint256"
        }
      ],
      "name": "Processed",
      "type": "event"
    },
    {
      "anonymous": false,
      "inputs": [
        {
          "indexed": false,
          "internalType": "uint256",
          "name": "productID",
          "type": "uint256"
        }
      ],
      "name": "Received",
      "type": "event"
    },
    {
      "anonymous": false,
      "inputs": [
        {
          "indexed": false,
          "internalType": "uint256",
          "name": "productID",
          "type": "uint256"
        }
      ],
      "name": "Shipped",
      "type": "event"
    },
    {
      "anonymous": false,
      "inputs": [
        {
          "indexed": false,
          "internalType": "uint256",
          "name": "productID",
          "type": "uint256"
        }
      ],
      "name": "Sold",
      "type": "event"
    },
    {
      "inputs": [],
      "name": "owner",
      "outputs": [
        {
          "internalType": "address",
          "name": "",
          "type": "address"
        }
      ],
      "stateMutability": "view",
      "type": "function"
    },
    {
      "inputs": [],
      "name": "productCount",
      "outputs": [
        {
          "internalType": "uint256",
          "name": "",
          "type": "uint256"
        }
      ],
      "stateMutability": "view",
      "type": "function"
    },
    {
      "inputs": [
        {
          "internalType": "uint256",
          "name": "",
          "type": "uint256"
        }
      ],
      "name": "products",
      "outputs": [
        {
          "internalType": "uint256",
          "name": "id",
          "type": "uint256"
        },
        {
          "internalType": "string",
          "name": "name",
          "type": "string"
        },
        {
          "internalType": "uint256",
          "name": "price",
          "type": "uint256"
        },
        {
          "internalType": "enum SupplyChain.State",
          "name": "state",
          "type": "uint8"
        },
        {
          "internalType": "address payable",
          "name": "farmerID",
          "type": "address"
        },
        {
          "internalType": "address",
          "name": "distributorID",
          "type": "address"
        },
        {
          "internalType": "address",
          "name": "retailerID",
          "type": "address"
        },
        {
          "internalType": "address",
          "name": "consumerID",
          "type": "address"
        },
        {
          "internalType": "string",
          "name": "farmName",
          "type": "string"
        },
        {
          "internalType": "string",
          "name": "farmInfo",
          "type": "string"
        },
        {
          "internalType": "string",
          "name": "latitude",
          "type": "string"
        },
        {
          "internalType": "string",
          "name": "longitude",
          "type": "string"
        }
      ],
      "stateMutability": "view",
      "type": "function"
    },
    {
      "inputs": [
        {
          "internalType": "address",
          "name": "",
          "type": "address"
        }
      ],
      "name": "roles",
      "outputs": [
        {
          "internalType": "enum SupplyChain.Role",
          "name": "",
          "type": "uint8"
        }
      ],
      "stateMutability": "view",
      "type": "function"
    },
    {
      "inputs": [
        {
          "internalType": "address",
          "name": "_address",
          "type": "address"
        }
      ],
      "name": "addFarmer",
      "outputs": [],
      "stateMutability": "nonpayable",
      "type": "function"
    },
    {
      "inputs": [
        {
          "internalType": "address",
          "name": "_address",
          "type": "address"
        }
      ],
      "name": "addDistributor",
      "outputs": [],
      "stateMutability": "nonpayable",
      "type": "function"
    },
    {
      "inputs": [
        {
          "internalType": "address",
          "name": "_address",
          "type": "address"
        }
      ],
      "name": "addRetailer",
      "outputs": [],
      "stateMutability": "nonpayable",
      "type": "function"
    },
    {
      "inputs": [
        {
          "internalType": "address",
          "name": "_address",
          "type": "address"
        }
      ],
      "name": "addConsumer",
      "outputs": [],
      "stateMutability": "nonpayable",
      "type": "function"
    },
    {
      "inputs": [
        {
          "internalType": "string",
          "name": "_name",
          "type": "string"
        },
        {
          "internalType": "string",
          "name": "_farmName",
          "type": "string"
        },
        {
          "internalType": "string",
          "name": "_farmInfo",
          "type": "string"
        },
        {
          "internalType": "string",
          "name": "_latitude",
          "type": "string"
        },
        {
          "internalType": "string",
          "name": "_longitude",
          "type": "string"
        }
      ],
      "name": "harvestItem",
      "outputs": [],
      "stateMutability": "nonpayable",
      "type": "function"
    },
    {
      "inputs": [
        {
          "internalType": "uint256",
          "name": "_productId",
          "type": "uint256"
        }
      ],
      "name": "processItem",
      "outputs": [],
      "stateMutability": "nonpayable",
      "type": "function"
    },
    {
      "inputs": [
        {
          "internalType": "uint256",
          "name": "_productId",
          "type": "uint256"
        }
      ],
      "name": "packItem",
      "outputs": [],
      "stateMutability": "nonpayable",
      "type": "function"
    },
    {
      "inputs": [
        {
          "internalType": "uint256",
          "name": "_productId",
          "type": "uint256"
        },
        {
          "internalType": "uint256",
          "name": "_price",
          "type": "uint256"
        }
      ],
      "name": "sellItem",
      "outputs": [],
      "stateMutability": "nonpayable",
      "type": "function"
    },
    {
      "inputs": [
        {
          "internalType": "uint256",
          "name": "_productId",
          "type": "uint256"
        }
      ],
      "name": "buyItem",
      "outputs": [],
      "stateMutability": "payable",
      "type": "function"
    },
    {
      "inputs": [
        {
          "internalType": "uint256",
          "name": "_productId",
          "type": "uint256"
        }
      ],
      "name": "shipItem",
      "outputs": [],
      "stateMutability": "nonpayable",
      "type": "function"
    },
    {
      "inputs": [
        {
          "internalType": "uint256",
          "name": "_productId",
          "type": "uint256"
        }
      ],
      "name": "receiveItem",
      "outputs": [],
      "stateMutability": "nonpayable",
      "type": "function"
    },
    {
      "inputs": [
        {
          "internalType": "uint256",
          "name": "_productId",
          "type": "uint256"
        }
      ],
      "name": "purchaseItem",
      "outputs": [],
      "stateMutability": "nonpayable",
      "type": "function"
    },
    {
      "inputs": [
        {
          "internalType": "uint256",
          "name": "_productId",
          "type": "uint256"
        }
      ],
      "name": "fetchProductState",
      "outputs": [
        {
          "internalType": "uint256",
          "name": "",
          "type": "uint256"
        }
      ],
      "stateMutability": "view",
      "type": "function"
    },
    {
      "inputs": [
        {
          "internalType": "uint256",
          "name": "_productId",
          "type": "uint256"
        }
      ],
      "name": "fetchProductDetails",
      "outputs": [
        {
          "internalType": "string",
          "name": "name",
          "type": "string"
        },
        {
          "internalType": "uint256",
          "name": "price",
          "type": "uint256"
        },
        {
          "internalType": "address",
          "name": "farmerID",
          "type": "address"
        },
        {
          "internalType": "address",
          "name": "distributorID",
          "type": "address"
        },
        {
          "internalType": "address",
          "name": "retailerID",
          "type": "address"
        },
        {
          "internalType": "address",
          "name": "consumerID",
          "type": "address"
        },
        {
          "internalType": "string",
          "name": "farmName",
          "type": "string"
        },
        {
          "internalType": "string",
          "name": "farmInfo",
          "type": "string"
        },
        {
          "internalType": "string",
          "name": "latitude",
          "type": "string"
        },
        {
          "internalType": "string",
          "name": "longitude",
          "type": "string"
        },
        {
          "internalType": "uint256",
          "name": "state",
          "type": "uint256"
        }
      ],
      "stateMutability": "view",
      "type": "function"
    }
  ],
  "bytecode": "0x6080604052600060025534801561001557600080fd5b5033600360006101000a81548173ffffffffffffffffffffffffffffffffffffffff021916908373ffffffffffffffffffffffffffffffffffffffff160217905550613a6b806100666000396000f3fe6080604052600436106101095760003560e01c80639937464211610095578063e0f6ef8711610064578063e0f6ef8714610376578063e2f1fe14146103a1578063e7fb74c7146103de578063f30fc480146103fa578063f61c899a1461042357610109565b806399374642146102a0578063a26be999146102dd578063aa39734b14610306578063d38ea5bf1461034d57610109565b80637250e224116100dc5780637250e224146101b25780637acc0b20146101db57806380c3f96d146102235780638da5cb5b1461024c5780638ec4f5051461027757610109565b8063112940f91461010e5780632d923561146101375780633129bc881461016057806349dae76614610189575b600080fd5b34801561011a57600080fd5b5061013560048036038101906101309190612d54565b61044c565b005b34801561014357600080fd5b5061015e60048036038101906101599190612e95565b61056d565b005b34801561016c57600080fd5b5061018760048036038101906101829190612d7d565b61089f565b005b34801561019557600080fd5b506101b060048036038101906101ab9190612e6c565b610d11565b005b3480156101be57600080fd5b506101d960048036038101906101d49190612d54565b611026565b005b3480156101e757600080fd5b5061020260048036038101906101fd9190612e6c565b611146565b60405161021a9c9b9a9998979695949392919061363a565b60405180910390f35b34801561022f57600080fd5b5061024a60048036038101906102459190612d54565b6114db565b005b34801561025857600080fd5b506102616115fc565b60405161026e919061333b565b60405180910390f35b34801561028357600080fd5b5061029e60048036038101906102999190612d54565b611622565b005b3480156102ac57600080fd5b506102c760048036038101906102c29190612d54565b611743565b6040516102d49190613356565b60405180910390f35b3480156102e957600080fd5b5061030460048036038101906102ff9190612e6c565b611763565b005b34801561031257600080fd5b5061032d60048036038101906103289190612e6c565b611a29565b6040516103449b9a99989796959493929190613371565b60405180910390f35b34801561035957600080fd5b50610374600480360381019061036f9190612e6c565b611fc2565b005b34801561038257600080fd5b5061038b6121eb565b604051610398919061361f565b60405180910390f35b3480156103ad57600080fd5b506103c860048036038101906103c39190612e6c565b6121f1565b6040516103d5919061361f565b60405180910390f35b6103f860048036038101906103f39190612e6c565b612255565b005b34801561040657600080fd5b50610421600480360381019061041c9190612e6c565b6125f5565b005b34801561042f57600080fd5b5061044a60048036038101906104459190612e6c565b61290a565b005b600360009054906101000a900473ffffffffffffffffffffffffffffffffffffffff1673ffffffffffffffffffffffffffffffffffffffff163373ffffffffffffffffffffffffffffffffffffffff16146104dc576040517f08c379a00000000000000000000000000000000000000000000000000000000081526004016104d39061353f565b60405180910390fd5b6003600160008373ffffffffffffffffffffffffffffffffffffffff1673ffffffffffffffffffffffffffffffffffffffff16815260200190815260200160002060006101000a81548160ff02191690836003811115610565577f4e487b7100000000000000000000000000000000000000000000000000000000600052602160045260246000fd5b021790555050565b600060038111156105a7577f4e487b7100000000000000000000000000000000000000000000000000000000600052602160045260246000fd5b600160003373ffffffffffffffffffffffffffffffffffffffff1673ffffffffffffffffffffffffffffffffffffffff16815260200190815260200160002060009054906101000a900460ff16600381111561062c577f4e487b7100000000000000000000000000000000000000000000000000000000600052602160045260246000fd5b1461066c576040517f08c379a00000000000000000000000000000000000000000000000000000000081526004016106639061359f565b60405180910390fd5b600260068111156106a6577f4e487b7100000000000000000000000000000000000000000000000000000000600052602160045260246000fd5b60008084815260200190815260200160002060030160009054906101000a900460ff166006811115610701577f4e487b7100000000000000000000000000000000000000000000000000000000600052602160045260246000fd5b14610741576040517f08c379a0000000000000000000000000000000000000000000000000000000008152600401610738906135bf565b60405180910390fd5b3373ffffffffffffffffffffffffffffffffffffffff1660008084815260200190815260200160002060030160019054906101000a900473ffffffffffffffffffffffffffffffffffffffff1673ffffffffffffffffffffffffffffffffffffffff16146107e4576040517f08c379a00000000000000000000000000000000000000000000000000000000081526004016107db9061347f565b60405180910390fd5b600360008084815260200190815260200160002060030160006101000a81548160ff02191690836006811115610843577f4e487b7100000000000000000000000000000000000000000000000000000000600052602160045260246000fd5b021790555080600080848152602001908152602001600020600201819055507f454a59b1e51b1685e697faeca2a404382f4dcb9970aece78299147857e1503938282604051610893929190613717565b60405180910390a15050565b600060038111156108d9577f4e487b7100000000000000000000000000000000000000000000000000000000600052602160045260246000fd5b600160003373ffffffffffffffffffffffffffffffffffffffff1673ffffffffffffffffffffffffffffffffffffffff16815260200190815260200160002060009054906101000a900460ff16600381111561095e577f4e487b7100000000000000000000000000000000000000000000000000000000600052602160045260246000fd5b1461099e576040517f08c379a00000000000000000000000000000000000000000000000000000000081526004016109959061359f565b60405180910390fd5b600260008154809291906109b1906138c9565b919050555060405180610180016040528060025481526020018681526020016000815260200160006006811115610a11577f4e487b7100000000000000000000000000000000000000000000000000000000600052602160045260246000fd5b81526020013373ffffffffffffffffffffffffffffffffffffffff168152602001600073ffffffffffffffffffffffffffffffffffffffff168152602001600073ffffffffffffffffffffffffffffffffffffffff168152602001600073ffffffffffffffffffffffffffffffffffffffff168152602001858152602001848152602001838152602001828152506000806002548152602001908152602001600020600082015181600001556020820151816001019080519060200190610ad9929190612c1f565b506040820151816002015560608201518160030160006101000a81548160ff02191690836006811115610b35577f4e487b7100000000000000000000000000000000000000000000000000000000600052602160045260246000fd5b021790555060808201518160030160016101000a81548173ffffffffffffffffffffffffffffffffffffffff021916908373ffffffffffffffffffffffffffffffffffffffff16021790555060a08201518160040160006101000a81548173ffffffffffffffffffffffffffffffffffffffff021916908373ffffffffffffffffffffffffffffffffffffffff16021790555060c08201518160050160006101000a81548173ffffffffffffffffffffffffffffffffffffffff021916908373ffffffffffffffffffffffffffffffffffffffff16021790555060e08201518160060160006101000a81548173ffffffffffffffffffffffffffffffffffffffff021916908373ffffffffffffffffffffffffffffffffffffffff160217905550610100820151816007019080519060200190610c73929190612c1f565b50610120820151816008019080519060200190610c91929190612c1f565b50610140820151816009019080519060200190610caf929190612c1f565b5061016082015181600a019080519060200190610ccd929190612c1f565b509050507f8e55ccfc9778ff8eba1646d765cf1982537ce0f9257054a17b48aad745250183600254604051610d02919061361f565b60405180910390a15050505050565b60006003811115610d4b577f4e487b7100000000000000000000000000000000000000000000000000000000600052602160045260246000fd5b600160003373ffffffffffffffffffffffffffffffffffffffff1673ffffffffffffffffffffffffffffffffffffffff16815260200190815260200160002060009054906101000a900460ff166003811115610dd0577f4e487b7100000000000000000000000000000000000000000000000000000000600052602160045260246000fd5b14610e10576040517f08c379a0000000000000000000000000000000000000000000000000000000008152600401610e079061359f565b60405180910390fd5b60006006811115610e4a577f4e487b7100000000000000000000000000000000000000000000000000000000600052602160045260246000fd5b60008083815260200190815260200160002060030160009054906101000a900460ff166006811115610ea5577f4e487b7100000000000000000000000000000000000000000000000000000000600052602160045260246000fd5b14610ee5576040517f08c379a0000000000000000000000000000000000000000000000000000000008152600401610edc906134bf565b60405180910390fd5b3373ffffffffffffffffffffffffffffffffffffffff1660008083815260200190815260200160002060030160019054906101000a900473ffffffffffffffffffffffffffffffffffffffff1673ffffffffffffffffffffffffffffffffffffffff1614610f88576040517f08c379a0000000000000000000000000000000000000000000000000000000008152600401610f7f9061347f565b60405180910390fd5b600160008083815260200190815260200160002060030160006101000a81548160ff02191690836006811115610fe7577f4e487b7100000000000000000000000000000000000000000000000000000000600052602160045260246000fd5b02179055507f5afe3b1bf87069693c075da5c22a98d63d1aef98a30dbbe538d0781a98b77ee58160405161101b919061361f565b60405180910390a150565b600360009054906101000a900473ffffffffffffffffffffffffffffffffffffffff1673ffffffffffffffffffffffffffffffffffffffff163373ffffffffffffffffffffffffffffffffffffffff16146110b6576040517f08c379a00000000000000000000000000000000000000000000000000000000081526004016110ad9061353f565b60405180910390fd5b60018060008373ffffffffffffffffffffffffffffffffffffffff1673ffffffffffffffffffffffffffffffffffffffff16815260200190815260200160002060006101000a81548160ff0219169083600381111561113e577f4e487b7100000000000000000000000000000000000000000000000000000000600052602160045260246000fd5b021790555050565b600060205280600052604060002060009150905080600001549080600101805461116f90613897565b80601f016020809104026020016040519081016040528092919081815260200182805461119b90613897565b80156111e85780601f106111bd576101008083540402835291602001916111e8565b820191906000526020600020905b8154815290600101906020018083116111cb57829003601f168201915b5050505050908060020154908060030160009054906101000a900460ff16908060030160019054906101000a900473ffffffffffffffffffffffffffffffffffffffff16908060040160009054906101000a900473ffffffffffffffffffffffffffffffffffffffff16908060050160009054906101000a900473ffffffffffffffffffffffffffffffffffffffff16908060060160009054906101000a900473ffffffffffffffffffffffffffffffffffffffff16908060070180546112ae90613897565b80601f01602080910402602001604051908101604052809291908181526020018280546112da90613897565b80156113275780601f106112fc57610100808354040283529160200191611327565b820191906000526020600020905b81548152906001019060200180831161130a57829003601f168201915b50505050509080600801805461133c90613897565b80601f016020809104026020016040519081016040528092919081815260200182805461136890613897565b80156113b55780601f1061138a576101008083540402835291602001916113b5565b820191906000526020600020905b81548152906001019060200180831161139857829003601f168201915b5050505050908060090180546113ca90613897565b80601f01602080910402602001604051908101604052809291908181526020018280546113f690613897565b80156114435780601f1061141857610100808354040283529160200191611443565b820191906000526020600020905b81548152906001019060200180831161142657829003601f168201915b50505050509080600a01805461145890613897565b80601f016020809104026020016040519081016040528092919081815260200182805461148490613897565b80156114d15780601f106114a6576101008083540402835291602001916114d1565b820191906000526020600020905b8154815290600101906020018083116114b457829003601f168201915b505050505090508c565b600360009054906101000a900473ffffffffffffffffffffffffffffffffffffffff1673ffffffffffffffffffffffffffffffffffffffff163373ffffffffffffffffffffffffffffffffffffffff161461156b576040517f08c379a00000000000000000000000000000000000000000000000000000000081526004016115629061353f565b60405180910390fd5b6000600160008373ffffffffffffffffffffffffffffffffffffffff1673ffffffffffffffffffffffffffffffffffffffff16815260200190815260200160002060006101000a81548160ff021916908360038111156115f4577f4e487b7100000000000000000000000000000000000000000000000000000000600052602160045260246000fd5b021790555050565b600360009054906101000a900473ffffffffffffffffffffffffffffffffffffffff1681565b600360009054906101000a900473ffffffffffffffffffffffffffffffffffffffff1673ffffffffffffffffffffffffffffffffffffffff163373ffffffffffffffffffffffffffffffffffffffff16146116b2576040517f08c379a00000000000000000000000000000000000000000000000000000000081526004016116a99061353f565b60405180910390fd5b6002600160008373ffffffffffffffffffffffffffffffffffffffff1673ffffffffffffffffffffffffffffffffffffffff16815260200190815260200160002060006101000a81548160ff0219169083600381111561173b577f4e487b7100000000000000000000000000000000000000000000000000000000600052602160045260246000fd5b021790555050565b60016020528060005260406000206000915054906101000a900460ff1681565b6002600381111561179d577f4e487b7100000000000000000000000000000000000000000000000000000000600052602160045260246000fd5b600160003373ffffffffffffffffffffffffffffffffffffffff1673ffffffffffffffffffffffffffffffffffffffff16815260200190815260200160002060009054906101000a900460ff166003811115611822577f4e487b7100000000000000000000000000000000000000000000000000000000600052602160045260246000fd5b14611862576040517f08c379a00000000000000000000000000000000000000000000000000000000081526004016118599061349f565b60405180910390fd5b6005600681111561189c577f4e487b7100000000000000000000000000000000000000000000000000000000600052602160045260246000fd5b60008083815260200190815260200160002060030160009054906101000a900460ff1660068111156118f7577f4e487b7100000000000000000000000000000000000000000000000000000000600052602160045260246000fd5b14611937576040517f08c379a000000000000000000000000000000000000000000000000000000000815260040161192e906135df565b60405180910390fd5b3360008083815260200190815260200160002060050160006101000a81548173ffffffffffffffffffffffffffffffffffffffff021916908373ffffffffffffffffffffffffffffffffffffffff160217905550600660008083815260200190815260200160002060030160006101000a81548160ff021916908360068111156119ea577f4e487b7100000000000000000000000000000000000000000000000000000000600052602160045260246000fd5b02179055507fa8142743f8f70a4c26f3691cf4ed59718381fb2f18070ec52be1f1022d85555781604051611a1e919061361f565b60405180910390a150565b606060008060008060006060806060806000806000808e81526020019081526020016000206040518061018001604052908160008201548152602001600182018054611a7490613897565b80601f0160208091040260200160405190810160405280929190818152602001828054611aa090613897565b8015611aed5780601f10611ac257610100808354040283529160200191611aed565b820191906000526020600020905b815481529060010190602001808311611ad057829003601f168201915b50505050508152602001600282015481526020016003820160009054906101000a900460ff166006811115611b4b577f4e487b7100000000000000000000000000000000000000000000000000000000600052602160045260246000fd5b6006811115611b83577f4e487b7100000000000000000000000000000000000000000000000000000000600052602160045260246000fd5b81526020016003820160019054906101000a900473ffffffffffffffffffffffffffffffffffffffff1673ffffffffffffffffffffffffffffffffffffffff1673ffffffffffffffffffffffffffffffffffffffff1681526020016004820160009054906101000a900473ffffffffffffffffffffffffffffffffffffffff1673ffffffffffffffffffffffffffffffffffffffff1673ffffffffffffffffffffffffffffffffffffffff1681526020016005820160009054906101000a900473ffffffffffffffffffffffffffffffffffffffff1673ffffffffffffffffffffffffffffffffffffffff1673ffffffffffffffffffffffffffffffffffffffff1681526020016006820160009054906101000a900473ffffffffffffffffffffffffffffffffffffffff1673ffffffffffffffffffffffffffffffffffffffff1673ffffffffffffffffffffffffffffffffffffffff168152602001600782018054611cef90613897565b80601f0160208091040260200160405190810160405280929190818152602001828054611d1b90613897565b8015611d685780601f10611d3d57610100808354040283529160200191611d68565b820191906000526020600020905b815481529060010190602001808311611d4b57829003601f168201915b50505050508152602001600882018054611d8190613897565b80601f0160208091040260200160405190810160405280929190818152602001828054611dad90613897565b8015611dfa5780601f10611dcf57610100808354040283529160200191611dfa565b820191906000526020600020905b815481529060010190602001808311611ddd57829003601f168201915b50505050508152602001600982018054611e1390613897565b80601f0160208091040260200160405190810160405280929190818152602001828054611e3f90613897565b8015611e8c5780601f10611e6157610100808354040283529160200191611e8c565b820191906000526020600020905b815481529060010190602001808311611e6f57829003601f168201915b50505050508152602001600a82018054611ea590613897565b80601f0160208091040260200160405190810160405280929190818152602001828054611ed190613897565b8015611f1e5780601f10611ef357610100808354040283529160200191611f1e565b820191906000526020600020905b815481529060010190602001808311611f0157829003601f168201915b50505050508152505090508060200151816040015182608001518360a001518460c001518560e001518661010001518761012001518861014001518961016001518a606001516006811115611f9c577f4e487b7100000000000000000000000000000000000000000000000000000000600052602160045260246000fd5b9b509b509b509b509b509b509b509b509b509b509b505091939597999b90929496989a50565b600380811115611ffb577f4e487b7100000000000000000000000000000000000000000000000000000000600052602160045260246000fd5b600160003373ffffffffffffffffffffffffffffffffffffffff1673ffffffffffffffffffffffffffffffffffffffff16815260200190815260200160002060009054906101000a900460ff166003811115612080577f4e487b7100000000000000000000000000000000000000000000000000000000600052602160045260246000fd5b146120c0576040517f08c379a00000000000000000000000000000000000000000000000000000000081526004016120b7906134ff565b60405180910390fd5b6006808111156120f9577f4e487b7100000000000000000000000000000000000000000000000000000000600052602160045260246000fd5b60008083815260200190815260200160002060030160009054906101000a900460ff166006811115612154577f4e487b7100000000000000000000000000000000000000000000000000000000600052602160045260246000fd5b14612194576040517f08c379a000000000000000000000000000000000000000000000000000000000815260040161218b9061343f565b60405180910390fd5b3360008083815260200190815260200160002060060160006101000a81548173ffffffffffffffffffffffffffffffffffffffff021916908373ffffffffffffffffffffffffffffffffffffffff16021790555050565b60025481565b600080600083815260200190815260200160002060030160009054906101000a900460ff16600681111561224e577f4e487b7100000000000000000000000000000000000000000000000000000000600052602160045260246000fd5b9050919050565b6001600381111561228f577f4e487b7100000000000000000000000000000000000000000000000000000000600052602160045260246000fd5b600160003373ffffffffffffffffffffffffffffffffffffffff1673ffffffffffffffffffffffffffffffffffffffff16815260200190815260200160002060009054906101000a900460ff166003811115612314577f4e487b7100000000000000000000000000000000000000000000000000000000600052602160045260246000fd5b14612354576040517f08c379a000000000000000000000000000000000000000000000000000000000815260040161234b9061357f565b60405180910390fd5b6003600681111561238e577f4e487b7100000000000000000000000000000000000000000000000000000000600052602160045260246000fd5b60008083815260200190815260200160002060030160009054906101000a900460ff1660068111156123e9577f4e487b7100000000000000000000000000000000000000000000000000000000600052602160045260246000fd5b14612429576040517f08c379a00000000000000000000000000000000000000000000000000000000081526004016124209061355f565b60405180910390fd5b60008082815260200190815260200160002060020154341015612481576040517f08c379a00000000000000000000000000000000000000000000000000000000081526004016124789061351f565b60405180910390fd5b600080600083815260200190815260200160002060030160019054906101000a900473ffffffffffffffffffffffffffffffffffffffff1690508073ffffffffffffffffffffffffffffffffffffffff166108fc349081150290604051600060405180830381858888f19350505050158015612501573d6000803e3d6000fd5b503360008084815260200190815260200160002060040160006101000a81548173ffffffffffffffffffffffffffffffffffffffff021916908373ffffffffffffffffffffffffffffffffffffffff160217905550600460008084815260200190815260200160002060030160006101000a81548160ff021916908360068111156125b5577f4e487b7100000000000000000000000000000000000000000000000000000000600052602160045260246000fd5b02179055507f92f64ca637d023f354075a4be751b169c1a8a9ccb6d33cdd0cb3520543995727826040516125e9919061361f565b60405180910390a15050565b6000600381111561262f577f4e487b7100000000000000000000000000000000000000000000000000000000600052602160045260246000fd5b600160003373ffffffffffffffffffffffffffffffffffffffff1673ffffffffffffffffffffffffffffffffffffffff16815260200190815260200160002060009054906101000a900460ff1660038111156126b4577f4e487b7100000000000000000000000000000000000000000000000000000000600052602160045260246000fd5b146126f4576040517f08c379a00000000000000000000000000000000000000000000000000000000081526004016126eb9061359f565b60405180910390fd5b6001600681111561272e577f4e487b7100000000000000000000000000000000000000000000000000000000600052602160045260246000fd5b60008083815260200190815260200160002060030160009054906101000a900460ff166006811115612789577f4e487b7100000000000000000000000000000000000000000000000000000000600052602160045260246000fd5b146127c9576040517f08c379a00000000000000000000000000000000000000000000000000000000081526004016127c0906134df565b60405180910390fd5b3373ffffffffffffffffffffffffffffffffffffffff1660008083815260200190815260200160002060030160019054906101000a900473ffffffffffffffffffffffffffffffffffffffff1673ffffffffffffffffffffffffffffffffffffffff161461286c576040517f08c379a00000000000000000000000000000000000000000000000000000000081526004016128639061347f565b60405180910390fd5b600260008083815260200190815260200160002060030160006101000a81548160ff021916908360068111156128cb577f4e487b7100000000000000000000000000000000000000000000000000000000600052602160045260246000fd5b02179055507f9b3b66e2380b690bae22c73ef1428fb0c91e72fe14a4b6defa13035214187aff816040516128ff919061361f565b60405180910390a150565b60016003811115612944577f4e487b7100000000000000000000000000000000000000000000000000000000600052602160045260246000fd5b600160003373ffffffffffffffffffffffffffffffffffffffff1673ffffffffffffffffffffffffffffffffffffffff16815260200190815260200160002060009054906101000a900460ff1660038111156129c9577f4e487b7100000000000000000000000000000000000000000000000000000000600052602160045260246000fd5b14612a09576040517f08c379a0000000000000000000000000000000000000000000000000000000008152600401612a009061357f565b60405180910390fd5b60046006811115612a43577f4e487b7100000000000000000000000000000000000000000000000000000000600052602160045260246000fd5b60008083815260200190815260200160002060030160009054906101000a900460ff166006811115612a9e577f4e487b7100000000000000000000000000000000000000000000000000000000600052602160045260246000fd5b14612ade576040517f08c379a0000000000000000000000000000000000000000000000000000000008152600401612ad5906135ff565b60405180910390fd5b3373ffffffffffffffffffffffffffffffffffffffff1660008083815260200190815260200160002060040160009054906101000a900473ffffffffffffffffffffffffffffffffffffffff1673ffffffffffffffffffffffffffffffffffffffff1614612b81576040517f08c379a0000000000000000000000000000000000000000000000000000000008152600401612b789061345f565b60405180910390fd5b600560008083815260200190815260200160002060030160006101000a81548160ff02191690836006811115612be0577f4e487b7100000000000000000000000000000000000000000000000000000000600052602160045260246000fd5b02179055507ff00b9a5725b80c54016f42114f6ed7792d22eecb116011c4afac29c57bef6c9581604051612c14919061361f565b60405180910390a150565b828054612c2b90613897565b90600052602060002090601f016020900481019282612c4d5760008555612c94565b82601f10612c6657805160ff1916838001178555612c94565b82800160010185558215612c94579182015b82811115612c93578251825591602001919060010190612c78565b5b509050612ca19190612ca5565b5090565b5b80821115612cbe576000816000905550600101612ca6565b5090565b6000612cd5612cd084613771565b613740565b905082815260208101848484011115612ced57600080fd5b612cf8848285613855565b509392505050565b600081359050612d0f81613a07565b92915050565b600082601f830112612d2657600080fd5b8135612d36848260208601612cc2565b91505092915050565b600081359050612d4e81613a1e565b92915050565b600060208284031215612d6657600080fd5b6000612d7484828501612d00565b91505092915050565b600080600080600060a08688031215612d9557600080fd5b600086013567ffffffffffffffff811115612daf57600080fd5b612dbb88828901612d15565b955050602086013567ffffffffffffffff811115612dd857600080fd5b612de488828901612d15565b945050604086013567ffffffffffffffff811115612e0157600080fd5b612e0d88828901612d15565b935050606086013567ffffffffffffffff811115612e2a57600080fd5b612e3688828901612d15565b925050608086013567ffffffffffffffff811115612e5357600080fd5b612e5f88828901612d15565b9150509295509295909350565b600060208284031215612e7e57600080fd5b6000612e8c84828501612d3f565b91505092915050565b60008060408385031215612ea857600080fd5b6000612eb685828601612d3f565b9250506020612ec785828601612d3f565b9150509250929050565b612eda816137cf565b82525050565b612ee9816137bd565b82525050565b612ef881613831565b82525050565b612f0781613843565b82525050565b6000612f18826137a1565b612f2281856137ac565b9350612f32818560208601613864565b612f3b816139ce565b840191505092915050565b6000612f536014836137ac565b91507f50726f64756374206e6f742072656365697665640000000000000000000000006000830152602082019050919050565b6000612f936023836137ac565b91507f4e6f7420746865206469737472696275746f72206f6620746869732070726f6460008301527f75637400000000000000000000000000000000000000000000000000000000006020830152604082019050919050565b6000612ff9601e836137ac565b91507f4e6f7420746865206661726d6572206f6620746869732070726f6475637400006000830152602082019050919050565b6000613039600e836137ac565b91507f4e6f7420612072657461696c65720000000000000000000000000000000000006000830152602082019050919050565b60006130796015836137ac565b91507f50726f64756374206e6f742068617276657374656400000000000000000000006000830152602082019050919050565b60006130b96015836137ac565b91507f50726f64756374206e6f742070726f63657373656400000000000000000000006000830152602082019050919050565b60006130f9600e836137ac565b91507f4e6f74206120636f6e73756d65720000000000000000000000000000000000006000830152602082019050919050565b60006131396012836137ac565b91507f496e73756666696369656e742066756e647300000000000000000000000000006000830152602082019050919050565b6000613179600d836137ac565b91507f4e6f7420746865206f776e6572000000000000000000000000000000000000006000830152602082019050919050565b60006131b96014836137ac565b91507f50726f64756374206e6f7420666f722073616c650000000000000000000000006000830152602082019050919050565b60006131f96011836137ac565b91507f4e6f742061206469737472696275746f720000000000000000000000000000006000830152602082019050919050565b6000613239600c836137ac565b91507f4e6f742061206661726d657200000000000000000000000000000000000000006000830152602082019050919050565b60006132796012836137ac565b91507f50726f64756374206e6f74207061636b656400000000000000000000000000006000830152602082019050919050565b60006132b96013836137ac565b91507f50726f64756374206e6f742073686970706564000000000000000000000000006000830152602082019050919050565b60006132f96010836137ac565b91507f50726f64756374206e6f7420736f6c64000000000000000000000000000000006000830152602082019050919050565b61333581613827565b82525050565b60006020820190506133506000830184612ee0565b92915050565b600060208201905061336b6000830184612eef565b92915050565b600061016082019050818103600083015261338c818e612f0d565b905061339b602083018d61332c565b6133a8604083018c612ee0565b6133b5606083018b612ee0565b6133c2608083018a612ee0565b6133cf60a0830189612ee0565b81810360c08301526133e18188612f0d565b905081810360e08301526133f58187612f0d565b905081810361010083015261340a8186612f0d565b905081810361012083015261341f8185612f0d565b905061342f61014083018461332c565b9c9b505050505050505050505050565b6000602082019050818103600083015261345881612f46565b9050919050565b6000602082019050818103600083015261347881612f86565b9050919050565b6000602082019050818103600083015261349881612fec565b9050919050565b600060208201905081810360008301526134b88161302c565b9050919050565b600060208201905081810360008301526134d88161306c565b9050919050565b600060208201905081810360008301526134f8816130ac565b9050919050565b60006020820190508181036000830152613518816130ec565b9050919050565b600060208201905081810360008301526135388161312c565b9050919050565b600060208201905081810360008301526135588161316c565b9050919050565b60006020820190508181036000830152613578816131ac565b9050919050565b60006020820190508181036000830152613598816131ec565b9050919050565b600060208201905081810360008301526135b88161322c565b9050919050565b600060208201905081810360008301526135d88161326c565b9050919050565b600060208201905081810360008301526135f8816132ac565b9050919050565b60006020820190508181036000830152613618816132ec565b9050919050565b6000602082019050613634600083018461332c565b92915050565b600061018082019050613650600083018f61332c565b8181036020830152613662818e612f0d565b9050613671604083018d61332c565b61367e606083018c612efe565b61368b608083018b612ed1565b61369860a083018a612ee0565b6136a560c0830189612ee0565b6136b260e0830188612ee0565b8181036101008301526136c58187612f0d565b90508181036101208301526136da8186612f0d565b90508181036101408301526136ef8185612f0d565b90508181036101608301526137048184612f0d565b90509d9c50505050505050505050505050565b600060408201905061372c600083018561332c565b613739602083018461332c565b9392505050565b6000604051905081810181811067ffffffffffffffff821117156137675761376661399f565b5b8060405250919050565b600067ffffffffffffffff82111561378c5761378b61399f565b5b601f19601f8301169050602081019050919050565b600081519050919050565b600082825260208201905092915050565b60006137c882613807565b9050919050565b60006137da82613807565b9050919050565b60008190506137ef826139df565b919050565b6000819050613802826139f3565b919050565b600073ffffffffffffffffffffffffffffffffffffffff82169050919050565b6000819050919050565b600061383c826137e1565b9050919050565b600061384e826137f4565b9050919050565b82818337600083830152505050565b60005b83811015613882578082015181840152602081019050613867565b83811115613891576000848401525b50505050565b600060028204905060018216806138af57607f821691505b602082108114156138c3576138c2613970565b5b50919050565b60006138d482613827565b91507fffffffffffffffffffffffffffffffffffffffffffffffffffffffffffffffff82141561390757613906613912565b5b600182019050919050565b7f4e487b7100000000000000000000000000000000000000000000000000000000600052601160045260246000fd5b7f4e487b7100000000000000000000000000000000000000000000000000000000600052602160045260246000fd5b7f4e487b7100000000000000000000000000000000000000000000000000000000600052602260045260246000fd5b7f4e487b7100000000000000000000000000000000000000000000000000000000600052604160045260246000fd5b6000601f19601f8301169050919050565b600481106139f0576139ef613941565b5b50565b60078110613a0457613a03613941565b5b50565b613a10816137bd565b8114613a1b57600080fd5b50565b613a2781613827565b8114613a3257600080fd5b5056fea2646970667358221220c30938f233322138021809b85b13e4a73d4028aca20d4790bb570061c4bf82dc64736f6c63430008000033",
  "immutableReferences": {},
  "source": "// SPDX-License-Identifier: MIT\r\npragma solidity ^0.8.0;\r\n\r\ncontract SupplyChain {\r\n    // Define roles\r\n    enum Role { Farmer, Distributor, Retailer, Consumer }\r\n    \r\n    // State variables for product\r\n    enum State { Harvested, Processed, Packed, ForSale, Sold, Shipped, Received }\r\n    \r\n    // Product struct\r\n    struct Product {\r\n        uint id;\r\n        string name;\r\n        uint price;\r\n        State state;\r\n        address payable farmerID;\r\n        address distributorID;\r\n        address retailerID;\r\n        address consumerID;\r\n        string farmName;\r\n        string farmInfo;\r\n        string latitude;\r\n        string longitude;\r\n    }\r\n    \r\n    // Mappings\r\n    mapping (uint => Product) public products;\r\n    mapping (address => Role) public roles;\r\n    \r\n    // Events\r\n    event Harvested(uint productID);\r\n    event Processed(uint productID);\r\n    event Packed(uint productID);\r\n    event ForSale(uint productID, uint price);\r\n    event Sold(uint productID);\r\n    event Shipped(uint productID);\r\n    event Received(uint productID);\r\n    \r\n    // Product counter\r\n    uint public productCount = 0;\r\n    \r\n    // Owner\r\n    address public owner;\r\n    \r\n    constructor() {\r\n        owner = msg.sender;\r\n    }\r\n    \r\n    // Modifiers\r\n    modifier onlyOwner() {\r\n        require(msg.sender == owner, \"Not the owner\");\r\n        _;\r\n    }\r\n    \r\n    modifier onlyFarmer() {\r\n        require(roles[msg.sender] == Role.Farmer, \"Not a farmer\");\r\n        _;\r\n    }\r\n    \r\n    modifier onlyDistributor() {\r\n        require(roles[msg.sender] == Role.Distributor, \"Not a distributor\");\r\n        _;\r\n    }\r\n    \r\n    modifier onlyRetailer() {\r\n        require(roles[msg.sender] == Role.Retailer, \"Not a retailer\");\r\n        _;\r\n    }\r\n    \r\n    modifier onlyConsumer() {\r\n        require(roles[msg.sender] == Role.Consumer, \"Not a consumer\");\r\n        _;\r\n    }\r\n    \r\n    // Role management\r\n    function addFarmer(address _address) public onlyOwner {\r\n        roles[_address] = Role.Farmer;\r\n    }\r\n    \r\n    function addDistributor(address _address) public onlyOwner {\r\n        roles[_address] = Role.Distributor;\r\n    }\r\n    \r\n    function addRetailer(address _address) public onlyOwner {\r\n        roles[_address] = Role.Retailer;\r\n    }\r\n    \r\n    function addConsumer(address _address) public onlyOwner {\r\n        roles[_address] = Role.Consumer;\r\n    }\r\n    \r\n    // Product functions\r\n    function harvestItem(\r\n        string memory _name,\r\n        string memory _farmName,\r\n        string memory _farmInfo,\r\n        string memory _latitude,\r\n        string memory _longitude\r\n    ) public onlyFarmer {\r\n        productCount++;\r\n        products[productCount] = Product({\r\n            id: productCount,\r\n            name: _name,\r\n            price: 0,\r\n            state: State.Harvested,\r\n            farmerID: payable(msg.sender),\r\n            distributorID: address(0),\r\n            retailerID: address(0),\r\n            consumerID: address(0),\r\n            farmName: _farmName,\r\n            farmInfo: _farmInfo,\r\n            latitude: _latitude,\r\n            longitude: _longitude\r\n        });\r\n        \r\n        emit Harvested(productCount);\r\n    }\r\n    \r\n    function processItem(uint _productId) public onlyFarmer {\r\n        require(products[_productId].state == State.Harvested, \"Product not harvested\");\r\n        require(products[_productId].farmerID == msg.sender, \"Not the farmer of this product\");\r\n        \r\n        products[_productId].state = State.Processed;\r\n        emit Processed(_productId);\r\n    }\r\n    \r\n    function packItem(uint _productId) public onlyFarmer {\r\n        require(products[_productId].state == State.Processed, \"Product not processed\");\r\n        require(products[_productId].farmerID == msg.sender, \"Not the farmer of this product\");\r\n        \r\n        products[_productId].state = State.Packed;\r\n        emit Packed(_productId);\r\n    }\r\n    \r\n    function sellItem(uint _productId, uint _price) public onlyFarmer {\r\n        require(products[_productId].state == State.Packed, \"Product not packed\");\r\n        require(products[_productId].farmerID == msg.sender, \"Not the farmer of this product\");\r\n        \r\n        products[_productId].state = State.ForSale;\r\n        products[_productId].price = _price;\r\n        emit ForSale(_productId, _price);\r\n    }\r\n    \r\n    function buyItem(uint _productId) public payable onlyDistributor {\r\n        require(products[_productId].state == State.ForSale, \"Product not for sale\");\r\n        require(msg.value >= products[_productId].price, \"Insufficient funds\");\r\n        \r\n        address payable farmerAddress = products[_productId].farmerID;\r\n        farmerAddress.transfer(msg.value);\r\n        \r\n        products[_productId].distributorID = msg.sender;\r\n        products[_productId].state = State.Sold;\r\n        emit Sold(_productId);\r\n    }\r\n    \r\n    function shipItem(uint _productId) public onlyDistributor {\r\n        require(products[_productId].state == State.Sold, \"Product not sold\");\r\n        require(products[_productId].distributorID == msg.sender, \"Not the distributor of this product\");\r\n        \r\n        products[_productId].state = State.Shipped;\r\n        emit Shipped(_productId);\r\n    }\r\n    \r\n    function receiveItem(uint _productId) public onlyRetailer {\r\n        require(products[_productId].state == State.Shipped, \"Product not shipped\");\r\n        \r\n        products[_productId].retailerID = msg.sender;\r\n        products[_productId].state = State.Received;\r\n        emit Received(_productId);\r\n    }\r\n    \r\n    function purchaseItem(uint _productId) public onlyConsumer {\r\n        require(products[_productId].state == State.Received, \"Product not received\");\r\n        \r\n        products[_productId].consumerID = msg.sender;\r\n    }\r\n    \r\n    function fetchProductState(uint _productId) public view returns (uint) {\r\n        return uint(products[_productId].state);\r\n    }\r\n    \r\n    function fetchProductDetails(uint _productId) public view returns (\r\n        string memory name,\r\n        uint price,\r\n        address farmerID,\r\n        address distributorID,\r\n        address retailerID,\r\n        address consumerID,\r\n        string memory farmName,\r\n        string memory farmInfo,\r\n        string memory latitude,\r\n        string memory longitude,\r\n        uint state\r\n    ) {\r\n        Product memory product = products[_productId];\r\n        \r\n        return (\r\n            product.name,\r\n            product.price,\r\n            product.farmerID,\r\n            product.distributorID,\r\n            product.retailerID,\r\n            product.consumerID,\r\n            product.farmName,\r\n            product.farmInfo,\r\n            product.latitude,\r\n            product.longitude,\r\n            uint(product.state)\r\n        );\r\n    }\r\n}",
  "sourcePath": "C:\\Users\\dell\\Desktop\\FarmLink\\farmlink\\contracts\\SupplyChain.sol",
  "compiler": {
    "name": "solc",
    "version": "0.8.0+commit.c7dfd78e.Emscripten.clang"
  },
  "schemaVersion": "3.4.16",
  "updatedAt": "2025-03-13T13:36:35.813Z",
  "devdoc": {
    "kind": "dev",
    "methods": {},
    "version": 1
  },
  "userdoc": {
    "kind": "user",
    "methods": {},
    "version": 1
  }
}